:100000000C9424150C944C150C944C150C944C1514
:100010000C944C150C944C150C944C150C944C15DC
:100020000C944C150C944C150C944C150C944C15CC
:100030000C944C150C944C150C944C150C944C15BC
:100040000C941B1A0C944C150C9456180C943018E4
:100050000C944C150C944C150C944C150C944C159C
:100060000C944C150C944C1590289D29AA29B7295D
:10007000E229EF29C829D52940199619661960196E
:100080007B197F198A1900000000240027002A002C
:100090000000000800020100000304070000000047
:1000A0000000000000111AFCF90B0265059B207F7F
:1000B000FC0DFC0CFC0000000B0001030C0C0B04FD
:1000C00000E0E0E0E0E0E0C0C0C000C0C00606061E
:1000D0000B0206CCCCCCCC8888080E0E0B01FF3668
:1000E000363636FFFF6C6CFFFF6C6C6C6C080F0FC4
:1000F0000B01FE18183F7FC3C0F07E0F03C7FEFC44
:100100001818080C0C0B010070D888D8730E78CE24
:100110001B111B0E080A0A0B01003C7E6660307B37
:10012000FFCEFF7B0206060B0406C0C0C0C0808065
:10013000040F0F0B04FD30306060C0C0C0C0C0C0F1
:10014000C060603030040F0F0B02FDC0C060603033
:100150003030303030306060C0C00808080B010417
:100160001818FFFF187EE7420A0A140B00000C0063
:100170000C000C000C00FFC0FFC00C000C000C00B9
:100180000C000405050B02FD3030604080080202BF
:100190000B0104FFFF0202020B0400C0C009102083
:1001A0000B00FD0180018003000300060006000C27
:1001B000000C00180018003000300060006000C023
:1001C00000C000080C0C0B01003C7E66C3C3C3C317
:1001D000C3C3667E3C080C0C0B010018F8F8181815
:1001E0001818181818FFFF080C0C0B01003C7EC7EC
:1001F000C303070E1C3870FFFF080C0C0B01003CFA
:100200007E66060E3C3E0703C7FE7C080C0C0B0105
:10021000000E1E3E366666C6FFFF061F1F080C0C4A
:100220000B01007F7F60607E7F670303C7FE7C0851
:100230000C0C0B01000F3F7060DCFEE7C3C3E77ED0
:100240003C080C0C0B0100FFFFC30606060C0C0C4F
:10025000181818080C0C0B01003C7EE7C3663C7EA6
:10026000E7C3E77E3C080C0C0B01003C7EC3C3C314
:10027000C77F3B0306FEF80208080B0400C0C0005D
:10028000000000C0C0040B0B0B02FD30300000006A
:100290000030306040800909120B010101800780A5
:1002A0001E007800E00078001E00078001800A062A
:1002B0000C0B0002FFC0FFC000000000FFC0FFC029
:1002C0000909120B0101C000F0003C000F0003807F
:1002D0000F003C00F000C000070B0B0B02007CFE7F
:1002E000C6060E3C3030003030090D1A0B01FF3CC1
:1002F000006600C300CF00DB00DB00DB00DB00CFCB
:1003000080C000C00063003E000C0B160BFF003ED7
:10031000003F000F001980198019803FC03FC03096
:10032000C0F9F0F9F00A0B160B0000FE00FF0031D7
:100330008031803F003F8030C030C030C0FF80FF40
:10034000000A0B160B00001EC07FC071C0E0C0C0C9
:1003500000C000C000E00070C07FC01F000A0B1684
:100360000B0000FE00FF80638061C060C060C06061
:10037000C061C06380FF80FE000A0B160B0000FF07
:10038000C0FFC030C036C03E003E00360030C03036
:10039000C0FFC0FFC00A0B160B0000FFC0FFC0303B
:1003A000C036C03E003E00360030003000FE00FE89
:1003B000000B0B160B00001EC07FC071C0E0C0C058
:1003C00000C000C7E0E7E070C07FC01F800A0B16C6
:1003D0000B0000F3C0F3C0618061807F807F80618B
:1003E0008061806180F3C0F3C0080B0B0B0100FF3C
:1003F000FF18181818181818FFFF0A0B160B000022
:100400001FC01FC00300030003000300C300C3009C
:10041000C300FE003C000B0B160B0000F7C0F7C03A
:10042000630066006C007C007E0067006380F9E07A
:10043000F9E00A0B160B0000FC00FC003000300055
:100440003000300030C030C030C0FFC0FFC00A0BE9
:10045000160B0000E1C0E1C0738073807F806D8067
:100460006D806D806180F3C0F3C00A0B160B000035
:10047000E7C0F7C07180798069806D806580678092
:100480006380FB80F9800A0B160B00001E007F8042
:100490007380E1C0C0C0C0C0C0C0E1C073807F80B5
:1004A0001E000A0B160B0000FF00FF8061C060C039
:1004B00061C07F807F0060006000FC00FC000A0DCE
:1004C0001A0B00FE1E007F807380E1C0C0C0C0C058
:1004D000C0C0E1C073807F801E403FC033800B0BE3
:1004E000160B0000FF00FF8061C060C061C07F800C
:1004F0007F00638061C0FCE0FCE0090B160B01008B
:100500003D80FF80C380C180F8007F000F80C180E4
:10051000E180FF00DE000A0B160B0000FFC0FFC0E9
:10052000CCC0CCC0CCC00C000C000C000C007F80F8
:100530007F800A0B160B0000F7C0F7C06180618056
:10054000618061806180618073803F001E000C0BC0
:10055000160BFF00F9F0F9F06060606030C030C049
:10056000198019800F000F0006000C0B160BFF00FE
:10057000F9F0F9F06060666066606F606F6039C0C6
:1005800039C030C030C00A0B160B0000F3C0F3C0F6
:10059000618033001E000C001E0033006180F3C038
:1005A000F3C00A0B160B0000F3C0F3C061803300E8
:1005B0003F001E000C000C000C003F003F00080B29
:1005C0000B0B0100FFFFC7CE0C183073E3FFFF04D5
:1005D0000F0F0B04FDF0F0C0C0C0C0C0C0C0C0C051
:1005E000C0C0F0F00910200B01FDC000C000600089
:1005F000600030003000180018000C000C000600ED
:1006000006000300030001800180040F0F0B02FDB0
:10061000F0F03030303030303030303030F0F00802
:1006200007070B0105183C3C6666C3C30B02040BAD
:1006300000FCFFE0FFE00403030B0309C060300A85
:1006400009120B00003F007F80618001807F80FFE6
:1006500080C180FFC07DC00A0C180B0000E000E0E4
:100660000060006F007F8071C060C060C060C071BA
:10067000C0FF80EF000A09120B00003D807F80E37D
:1006800080C180C000C000E1C07FC03F000A0C18DC
:100690000B00000380038001803D807F80E380C1E8
:1006A00080C180C180E3807FC03DC00A09120B0079
:1006B000001E007F80E1C0C0C0FFC0FFC0E0007F1F
:1006C000C01FC0090C180B01001F803F803000FFC5
:1006D00000FF0030003000300030003000FF00FF2D
:1006E000000A0D1A0B00FC3DC07FC0E380C180C131
:1006F00080C180E3807F803D80018003803F003E99
:10070000000A0C180B0000E000E00060006F007FA2
:100710008071806180618061806180F3C0F3C00876
:100720000C0C0B0100181800F8F81818181818FF0E
:10073000FF0710100B01FC0C0C00FEFE060606065F
:10074000060606060EFCF80A0C180B0000E000E096
:10075000006000678067806E007C007C006E006730
:1007600000E3C0E3C0080C0C0B0100F8F8181818DF
:100770001818181818FFFF0C09120BFF00EDC0FF26
:10078000E077606660666066606660F770F7700AC2
:1007900009120B0000EF00FF8071806180618061B1
:1007A000806180F3C0F3C00A09120B00001E007FB5
:1007B00080E1C0C0C0C0C0C0C0E1C07F801E000AD0
:1007C0000D1A0B00FCEF00FF8071C060C060C060BC
:1007D000C071C07F806F0060006000F800F8000A00
:1007E0000D1A0B00FC3DC07FC0E380C180C180C1F9
:1007F00080E3807F803D800180018007C007C00AC0
:1008000009120B0000F380FFC03CC03800300030FC
:10081000003000FF00FF000809090B01007FFFC343
:10082000F07E1FC3FFFE0A0C180B000030003000E2
:100830003000FF00FF00300030003000300030C0DA
:100840003FC01F000A09120B0000E780E7806180AB
:1008500061806180618063807FC03DC00A09120BA6
:100860000000F3C0F3C061806180330033001E00DC
:100870001E000C000B09120B0000F1E0F1E064C057
:100880006EC06EC07BC03B80318031800B09120B83
:100890000000FBE0FBE031801B000E001B003180FC
:1008A000FBE0FBE00A0D1A0B00FCF3C0F3C0618013
:1008B0006180330033001E001E000C001800380059
:1008C000FC00FC000809090B0100FFFFC60C1830F2
:1008D00063FFFF040F0F0B03FD306060606060C0BA
:1008E0006060606060606030020E0E0B04FDC0C08E
:1008F000C0C0C0C0C0C0C0C0C0C0C0C0040F0F0BCB
:1009000003FDC06060606060306060606060606077
:10091000C00803030B010473FFDEFF000C10FDFC95
:10092000060192030D20FFFE09FE07FE00000006EF
:100930000001020606060100C0C0C0C000C00303DB
:1009400003060103A0A0A00508080600FF5050F808
:100950005050F850500509090600FF2078C8F0787B
:1009600018D8F020050707060000E0A8F02078A8B6
:100970003806060606FF003860307CD87C01030389
:100980000602038080800308080601FF2040C0C0E3
:10099000C0C040200308080601FF8040606060601E
:1009A000408004040406000320F06090050505065D
:1009B00000012020F820200303030601FE60408090
:1009C000050101060003F8020101060100C0040848
:1009D000080601FF10102020404080800507070610
:1009E000000070D8D8D8D8D87006070706000030A5
:1009F000F030303030FC05070706000070D81830A2
:100A000060D8F805070706000070D8187018D8706D
:100A1000060707060000183858D8FC1818050707FD
:100A2000060000F8C0F0D81898F005070706000087
:100A300070D8C0F0D8D870050707060000F8D8189D
:100A40003030606005070706000070D8D870D8D82D
:100A50007005070706000070D8D87818D87002040F
:100A600004060100C00000C00306060600FE600088
:100A7000006040800405050600013060C06030045D
:100A80000303060002F000F0040505060101C06042
:100A90003060C005060606000070983060006006F1
:100AA00008080600FF70C898A8A89CC07007060632
:100AB00006FF007838287C6CEE06060606FF00F874
:100AC0006C786C6CF805060606000078D8C0C0D8B3
:100AD0007006060606FF00F86C6C6C6CF8060606DD
:100AE00006FF00FC6078606CFC06060606FF00FC52
:100AF00060786060F005060606000070D8C0F8D87F
:100B00007807060606FF00EE6C7C6C6CEE040606A9
:100B1000060000F060606060F006060606FF003C1C
:100B20001818D8D87007060606FF00EC6870786CB5
:100B3000F606060606FF00F06060606CFC0606061E
:100B400006FF00C46C6C7C54D407060606FF00EE5A
:100B500074746C6CE405060606000070D8D8D8D80A
:100B60007006060606FF00F86C6C7860F005070753
:100B70000600FF70D8D8D8D8701807060606FF0000
:100B8000F86C6C786CF605060606000078C8F0383C
:100B900098F006060606FF00FCB4303030780706F1
:100BA0000606FF00EE6C6C6C6C3807060606FF004C
:100BB000EE6C2838381007060606FF00D654547C21
:100BC0003828060606060000CC78303078CC0706B8
:100BD0000606FF00E6663C18183C050606060000FF
:100BE000F8D83060D8F80308080601FFE0C0C0C09C
:100BF000C0C0C0E00408080600FF808040402020FC
:100C000010100308080601FFE0606060606060E0AB
:100C10000503030600042070D80601010600FEFC4F
:100C2000020202060206804006050506000070D892
:100C300078D8FC06070706FF00E060786C6C6CF85B
:100C400005050506000070D8C0D870060707060025
:100C500000381878D8D8D87C05050506000070D86B
:100C6000F8C0780507070600003860F8606060F893
:100C70000607070600FE6CD8D8D87818F0060707D4
:100C800006FF00E060786C6C6C6C060707060000DD
:100C90003000F0303030FC0409090600FE3000F06E
:100CA0003030303030E007070706FF00E0606C7836
:100CB00070786E060707060000F03030303030FCE8
:100CC00006050506FF00F87C54545406050506FF8A
:100CD00000D86C6C6C6C05050506000070D8D8D87F
:100CE0007006070706FFFEF86C6C6C7860F006076C
:100CF000070600FE6CD8D8D878183C060505060013
:100D000000DC746060F006050506000078E0781CE1
:100D1000F80607070600006060F860606C38070599
:100D20000506FF00EC6C6C6C3E06050506FF00EC4A
:100D30006C38381007050506FF00D6547C3C2806A1
:100D40000505060000EC783078DC07070706FFFE93
:100D5000EE6C6C283830E0050505060000F8B06040
:100D6000D8F80408080601FF306060C06060603099
:100D70000107070602FF80808080808080040808C9
:100D80000600FFC0606030606060C00502020600BF
:100D90000368B0FFFFFFFFFFFFFFFFFFFFFFFFFF45
:100DA000FFFFFFFFFFFFFFFFFFFFFFFFFFFFFFFF53
:100DB000FFFFFFFF0000000600010207070601FE1B
:100DC000C000C0C0C0C0C00508080600FF202078D1
:100DD000C8C0782020060707060000386820F820E1
:100DE00064F805050506000188705070880607073D
:100DF000060000CC48FC30FC30780109090602FEF0
:100E00008080808000808080800508080600FF7850
:100E1000486090483090F0030101060105A00607E4
:100E2000070600003048B4A4B448300405050601A4
:100E300002E010D000F007050506FF00366CD86C04
:100E400036050303060002F8080805010106000341
:100E5000F80707070600003844BAB2AA443804016C
:100E600001060005F0040303060004609060050617
:100E7000060600002020F82000F803040406010301
:100E800060A040E0030404060103E04020C0020229
:100E900002060205408007070706FFFEEC6C6C6C3B
:100EA0007E40400608080600FF7CA8A8682828287D
:100EB0006C020101060103C00303030601FE40208A
:100EC000C0030404060103C04040E0040505060118
:100ED0000260906000F007050506FF00D86C366CD4
:100EE000D807070706FF00C04448F42C5E04070734
:100EF0000706FF00C04448F62A440E07070706FF0E
:100F000000E04428D42C5E040507070600FE3000EC
:100F1000303060C87007090906FF002010007838DB
:100F2000287C6CEE07090906FF001020007838289D
:100F30007C6CEE07090906FF001028007838287C31
:100F40006CEE07090906FF003448007838287C6CED
:100F5000EE07080806FF0028007838287C6CEE07AA
:100F6000090906FF003048307838287C6CEE070607
:100F70000606FF007E3A6C78DADE0508080600FEF9
:100F800078D8C0C0D870106006090906FF0020108C
:100F900000FC6478606CFC06090906FF0010200064
:100FA000FC6478606CFC06090906FF00205000FC18
:100FB0006478606CFC06080806FF005000FC64784A
:100FC000606CFC040909060000402000F0606060CD
:100FD00060F0040909060000204000F060606060D5
:100FE000F004090906000040A000F060606060F0B5
:100FF000040808060000A000F060606060F00606CB
:101000000606FF00F86CF4646CF807090906FF0097
:10101000344800EE64747C6CEC050909060000405D
:10102000200070D8D8D8D8700509090600002040E3
:101030000070D8D8D8D870050909060000205000E3
:1010400070D8D8D8D87005090906000068900070DB
:10105000D8D8D8D870050808060000500070D8D835
:10106000D8D870050505060001885020508807066D
:101070000606FF003A6C7C6C6CB807090906FF0095
:10108000201000EE6C6C6C6C3807090906FF000834
:101090001000EE6C6C6C6C3807090906FF00102814
:1010A00000EE6C6C6C6C3807080806FF002800EE38
:1010B0006C6C6C6C3807090906FF00040800E666D2
:1010C0003C18183C06060606FF00E0786C6C78E0D9
:1010D00007060606FF0038687C6666EC0608080608
:1010E0000000201000709878D8FC06080806000060
:1010F000102000709878D8FC0608080600002050E0
:1011000000709878D8FC0608080600006890007007
:101110009878D8FC0607070600005000709878D829
:10112000FC06090906000030483000709878D8FCA9
:1011300006050506FF006CB47CB0DC050707060059
:10114000FE70D8C0D8701060050808060000402066
:101150000070D8F8C078050808060000204000702C
:10116000D8F8C07805080806000020500070D8F8AC
:10117000C078050707060000500070D8F8C0780650
:10118000080806000020100070303030FC06080807
:1011900006000010200070303030FC060808060001
:1011A0000020500070303030FC0607070600005069
:1011B0000070303030FC050808060000D060B078C0
:1011C000D8D8D87007080806FF00344800D86C6CDF
:1011D0006C6E05080806000040200070D8D8D87052
:1011E00005080806000020400070D8D8D87005080F
:1011F0000806000020500070D8D8D87005080806EE
:10120000000068900070D8D8D87005070706000065
:10121000500070D8D8D8700505050600012000F8E8
:1012200000200507070600FF0870D8F8D87080076F
:10123000080806FF00201000EC6C6C6C3E070808E4
:1012400006FF00102000EC6C6C6C3E07080806FFDF
:1012500000102800EC6C6C6C3E07070706FF0028A6
:1012600000EC6C6C6C3E070A0A06FFFE081000EEEC
:101270006C6C283830F006090906FFFEE060786CD7
:101280006C6C7860F007090906FFFE2800EE6C6CB4
:10129000283830F0002735FCF319068F1093207F93
:1012A000F91AF919F90000000901010619190A02D1
:1012B0000078FCFCFCFCFCFC78787878303030302E
:1012C0003030000078FCFCFCFC780B0B160B000E99
:1012D00060C0F1E0F1E0F1E0F1E0F1E0F1E060C0E8
:1012E00060C060C060C01019321301FF071C071CEA
:1012F000071C071C0E380E380E387FFF7FFF7FFF5C
:101300000E380C301C701C70FFFEFFFEFFFE1C70C0
:101310001C7038E038E038E038E038E038E0111E82
:101320005A1301FC01800001800001800007F000D9
:101330001FFC00399E00718F00719F00F19F00F12A
:101340008E00FD8000FF80007FF0007FFC003FFEEC
:10135000000FFF0001FF8001BF80718F80F987803F
:10136000F98780F98700F18F00799E003FFC000724
:10137000E0000180000180000180000180001A1857
:10138000601B00000000180007C030000F607000F4
:101390001E39E0003C1F60003C10C0007810800047
:1013A00078118000F0310000F0230000F0620000AE
:1013B000F0C61F007B8C3D803F0C78C00018F040C9
:1013C0000011F0400031E0400021E0C00063E0C0C7
:1013D00000C3C18000C3C1800183C3000181E60056
:1013E0000300FC0018194B1C0200007C0001FF00E8
:1013F00003C70007878007838007838007C78007AC
:10140000C70007EF0007FC0003F80007F1FF0FF922
:10141000FF3DF87C78FC3878FE70F87E60F83FE09D
:10142000FC3FC0FC1FC1FE0FE3FF0FF37FFFFE3F39
:10143000F3FE0F80FC040B0B08020E60F0F0F0F0DE
:10144000F0F060606060091B360D02FD038007004C
:101450000E001C001C003800380078007800F000F6
:10146000F000F000F000F000F000F000F000F000FC
:1014700070007800380038001C001C000E000700C7
:101480000380091B360D01FDE000300038001C0010
:101490001C000E000E000F00070007800780078069
:1014A0000780078007800780078007800F000F00F4
:1014B0000E000E001C001C0038007000C0000C0F55
:1014C0001E11020A06000E000E00E670E670F6F02D
:1014D0003FC00F007FE0F6F0E670E67007000700FF
:1014E000060010102014020103C003C003C003C093
:1014F00003C003C0FFFFFFFFFFFFFFFF03C003C0E8
:1015000003C003C003C003C0060B0B0902FB78F83D
:10151000FCFCFC7C1C183070E00804040B0106FF86
:10152000FFFFFF06060609010078FCFCFCFC780AB8
:10153000193209FF0000C001C001C001800380030F
:101540008003000700070006000E000E000C001CC0
:10155000001C001800380038003000700070006077
:1015600000E000E000C00010183013010003C00FBD
:10157000F01E783C3C7C3E781EF81FF81FF81FF8E0
:101580001FF81FF81FF81FF81FF81FF81FF81F7823
:101590001E781E7C3E3C3C1E780FF003C00D1830B8
:1015A00013030001800780FF80FF800F800F800FF2
:1015B000800F800F800F800F800F800F800F800FB3
:1015C000800F800F800F800F800F800F800F80FFB3
:1015D000F8FFF81118481301000FF0003FFC0078E5
:1015E0007E00F03F00F81F00FC1F00FC1F00FC1FE6
:1015F000007C3F00383E00007C0000F80000F00056
:1016000001E00003C0000381800701800E01801CFF
:1016100003803FFF807FFF007FFF00FFFF00FFFF91
:10162000001018301301000FE03FF8787CF83EFC02
:101630003EFC3EFC3E783E007C007007E007C000A8
:10164000F8007E003E003F781FFC1FFC1FFC3FF8A7
:101650003E787E3FF807E0111848130000000400B0
:10166000000C00001C00003C00007C0000FC00019D
:10167000FC0001FC00037C00067C000C7C001C7C50
:1016800000387C00707C00E07C00C07C00FFFF80A4
:10169000FFFF80007C00007C00007C00007C0003D9
:1016A000FF8003FF801018301301001FFF3FFE3F33
:1016B000FE3FFC3FF0300030003000300037E03FAC
:1016C000F8387C303E203E001F001F381F7C1FFC76
:1016D0001FFC3E783E70FC3FF00FC011184813010C
:1016E0000003F0000FFC001F1E003E3E003C3E00C9
:1016F0007C3E00781C00F80000F80000F80000F9BB
:10170000F800FFFE00FF7F00FC1F00F81F80F80FAD
:1017100080F80F80F80F80F80F807C1F007C1F007E
:101720003E3E001FFC0007F000101830130200FFBF
:10173000FFFFFEFFFEFFFCFFFCC018C018C0388092
:1017400070007000F000E001E001E003E003C0077A
:10175000C007C00FC00FC00FC00FC00FC00780115F
:10176000184813010007F0000FFC003C3E00381F32
:1017700000780F00780F00780F007C0F007E1E00AD
:101780007FFC003FF0001FFC000FFE003FFF0078D1
:101790007F00F81F80F00F80F00F80F00F00F00F37
:1017A00000F81E007C3C003FF00007C00011184804
:1017B00013010003C0001FF8003E7C007C3E00FCCB
:1017C0001F00F81F00F80F80F80F80F80F80FC1F33
:1017D00080FC3F807F6F803FCF801F8F80000F8015
:1017E000000F80700F00F81F00FC1F00F81E00F8AB
:1017F0003E0070FC003FF0000FC000061010090210
:101800000078FCFCFCFC780000000078FCFCFCFC90
:10181000780615150902FB78FCFCFCFC780000003A
:101820000078F8FCFCFC7C1C183070E010122414CA
:1018300002000003000F007F01FF07FC1FF07F8004
:10184000FE00F800FC00FF803FE00FF803FE007F81
:10185000001F00070001100A14140203FFFFFFFF1E
:10186000FFFFFFFF00000000FFFFFFFFFFFFFFFF84
:10187000101224140200C000F000FE00FF803FE0C0
:101880000FF801FE007F001F003F01FF07FC1FF063
:101890007FC0FE00F800E00080000E193210010049
:1018A0000FC03FF071F8F0F8F8FCF8FCF8FC70FCA1
:1018B00000F801F801F003E00380070007000600CC
:1018C0000600000000000F001F801F801F801F8087
:1018D0000F0017194B190000007F0001FFC007E33C
:1018E000F00F00781E001C1C000C383C0630FFE690
:1018F00071E3E671E3C663C3C6E383C6E78786E7A1
:10190000878CE7078CE70F1CE70F18E31F7073F74E
:10191000E030E3CC38001C1C00780F01F007FFE03A
:1019200001FF00191964190000001C0000001C00D0
:1019300000001E0000003E0000003F0000007F008D
:1019400000007F8000007F800000FF800000CFC08B
:101950000001CFC000018FC0000187E0000387E0D5
:10196000000307F0000703F00007FFF00007FFF88F
:10197000000E01F8000C01FC001C00FC001C00FE25
:10198000003E00FE00FF83FF80FF83FF8017194B9E
:10199000190100FFFF80FFFFE01F83F01F81F81F88
:1019A00081F81F80FC1F80FC1F80FC1F80F81F81B6
:1019B000F81F81F01F87E01FFF001FFFC01F83F08B
:1019C0001F80FC1F80FC1F80FE1F807E1F80FE1F6B
:1019D00080FC1F80FC1F83F8FFFFF0FFFFC016197B
:1019E0004B180100007E1803FFB807C1F81F80F8EC
:1019F0001F00783E00387E00387E0018FE0018FC7C
:101A00000008FC0000FC0000FC0000FC0000FC00E2
:101A100000FE0000FE000CFE001C7E00187E003858
:101A20003F00301F80700FC1E007FFC000FF0018AB
:101A3000194B1A0100FFFF00FFFFE01F83F01F8119
:101A4000F81F80FC1F807E1F807E1F807F1F803FCD
:101A50001F803F1F803F1F803F1F803F1F803F1F11
:101A6000803F1F803F1F807F1F807E1F807E1F80E2
:101A70007E1F80FC1F81F81F83F0FFFFE0FFFF0047
:101A800015194B170100FFFFF8FFFFF81F81F81F22
:101A900080F81F80781F80381F80381F86181F86A7
:101AA000181F8E001F8E001F9E001FFE001FFE00CD
:101AB0001F9E001F8E001F86181F86181F86181F66
:101AC00080381F80381F80781F81F8FFFFF8FFFFE4
:101AD000F815194B170100FFFFF8FFFFF81FC1F8B9
:101AE0001F80F81F80781F80381F80181F83181FE1
:101AF00083181F87081F87001F9F001FFF001FFFFD
:101B0000001F8F001F87001F83001F83001F83009B
:101B10001F80001F80001F80001F8000FFF800FF53
:101B2000F8001919641A0100007E0C0003FFDC00A4
:101B300007C1FC000F807C001F003C003F001C0020
:101B40007E001C007E000C00FE000C00FE00040065
:101B5000FE000000FC000000FC000000FC00000093
:101B6000FC07FF80FC07FF80FC007C00FE007C007F
:101B70007E007C007E007C003F00FC001F00FC001B
:101B80000F81DC0007FF1C0000FC0C001A19641C0C
:101B90000100FFF3FFC0FFF3FFC01F807E001F8026
:101BA0007E001F807E001F807E001F807E001F80C1
:101BB0007E001F807E001F807E001F807E001F80B1
:101BC0007E001FFFFE001FFFFE001F807E001F80A3
:101BD0007E001F807E001F807E001F807E001F8091
:101BE0007E001F807E001F807E001F807E00FFF32E
:101BF000FFC0FFF3FFC00C19320E0100FFF0FFF031
:101C00001F801F801F801F801F801F801F801F80DC
:101C10001F801F801F801F801F801F801F801F80CC
:101C20001F801F801F801F801F80FFF0FFF014198E
:101C30004B14000000FFF000FFF0001F80001F8029
:101C4000001F80001F80001F80001F80001F800079
:101C50001F80001F80001F80001F80181F807E1FB4
:101C6000807E1F80FE1F80FE1F80FE1F80FC1F00E5
:101C7000603F00603E0038FE003FF8000FE00019B2
:101C800019641B0100FFF3FF80FFF3FF801F807EBC
:101C9000001F8078001F80F0001F81E0001F81C0BE
:101CA000001F8380001F8700001F8F00001F9F0000
:101CB000001FBF80001FFFC0001FEFC0001FEFE02C
:101CC000001FC7E0001F87F0001F83F8001F81F886
:101CD000001F81FC001F80FC001F80FE001F80FF92
:101CE00000FFF3FF80FFF3FF8015194B170100FF82
:101CF000F000FFF0001F80001F80001F80001F8089
:101D0000001F80001F80001F80001F80001F8000B8
:101D10001F80001F80001F80001F80001F80001F89
:101D200080181F80181F80181F80381F80381F8060
:101D3000781F81F8FFFFF8FFFFF81F1964200000EB
:101D40007FE007FE7FF00FFE0FF00FF00FF00FF0B7
:101D50000DF81BF00DF81BF00DF81BF00CFC3BF020
:101D60000CFC33F00CFC33F00C7C73F00C7E63F055
:101D70000C7E63F00C3EE3F00C3FC3F00C3FC3F06D
:101D80000C1FC3F00C1F83F00C1F83F00C0F83F0AB
:101D90000C0F03F00C0F03F01E0F03F0FFC61FFE25
:101DA000FFC61FFE1B19641B0000FF807FE0FFC001
:101DB0007FE03FE00F000FE006000FF006000FF895
:101DC00006000FFC06000DFE06000CFE06000CFFD0
:101DD00006000C7F86000C3FC6000C1FE6000C0FAF
:101DE000E6000C0FF6000C07FE000C03FE000C01D1
:101DF000FE000C00FE000C007E000C007E000C00BB
:101E00003E001E001E00FFC00E00FFC00600181995
:101E10004B1A0100007E0003FFC00FC1F01F80F8C5
:101E20003F00FC3E007C7E007E7E007EFC003FFC8E
:101E3000003FFC003FFC003FFC003FFC003FFC007B
:101E40003FFC003FFC003F7E007E7E007E3E007C2B
:101E50003F00FC1F80F80FC1F003FFC0007E00169A
:101E6000194B180100FFFF80FFFFE01F83F01F8167
:101E7000F81F80FC1F80FC1F80FC1F80FC1F80FC63
:101E80001F80FC1F81F81F83F01FFFE01FFF001F52
:101E900080001F80001F80001F80001F80001F80A7
:101EA000001F80001F80001F8000FFF000FFF00077
:101EB000191F7C1A01FA007E000003FFC0000FC149
:101EC000F0001F80F8003F00FC003E007C007E0018
:101ED0007E007E007E00FC003F00FC003F00FC0016
:101EE0003F00FC003F00FC003F00FC003F00FC0006
:101EF0003F00FC3C3F00FCFE3F007F877E007F836D
:101F0000FE003F03FC003F03FC001F83F8000FC3EB
:101F1000F00003FFE000007FE0000003E180000329
:101F2000E1800001F3800001FF000000FE000000DE
:101F30003C001919641B0100FFFF8000FFFFF00047
:101F40001F83F8001F81F8001F80FC001F80FC0029
:101F50001F80FC001F80FC001F80FC001F81F80018
:101F60001F81F0001F87C0001FFF00001FFFC0007F
:101F70001F87E0001F83E0001F83F0001F83F00035
:101F80001F83F0001F83F9801F81F9801F81FB00F0
:101F90001F81FF00FFF0FE00FFF07C0013194B15BE
:101FA000010003F0C01FFDC03C1FC07807C07003D4
:101FB000C0F001C0F000C0F800C0FF00C0FFF0009A
:101FC0007FFE007FFF003FFF800FFFC007FFE04064
:101FD0007FE06007E06003E07001E07801E07801F5
:101FE000C07E03C07F078067FF0061FC0015194BAE
:101FF000170100FFFFF8FFFFF8F1F878E1F838E18A
:10200000F838C1F818C1F818C1F81881F80881F833
:102010000801F80001F80001F80001F80001F800DB
:1020200001F80001F80001F80001F80001F80001D2
:10203000F80001F80001F8000FFF800FFF801A1967
:10204000641C0100FFF0FFC0FFF0FFC01F801E00F6
:102050001F800C001F800C001F800C001F800C00D4
:102060001F800C001F800C001F800C001F800C00C4
:102070001F800C001F800C001F800C001F800C00B4
:102080001F800C001F800C001F800C001F800C00A4
:102090001F801C000FC018000FE0380007F8F00088
:1020A00003FFE00000FFC000191964190000FFE001
:1020B000FF80FFE0FF803F803E001F801C001F80EC
:1020C0001C001FC018000FC038000FC0300007E010
:1020D000700007E0700007F0600003F0E00003F01C
:1020E000C00001F8C00001F9C00001F9800000FF44
:1020F000800000FF000000FF0000007F0000007E65
:102100000000003E0000003E0000003C0000001CFB
:102110000000201964200000FFDFF9FFFFDFF9FF56
:102120003F07E07C3F07E0381F83E0301F83F070FB
:102130001F83F0700FC1F0600FC3F8600FC3F8E0A9
:1021400007C3F8C007E7F8C007E6FCC007E6FD8054
:1021500003FE7D8003FC7F8003FC7F8001FC3F0049
:1021600001F83F0001F83F0000F83E0000F81E00B3
:1021700000F01E0000701C0000700C0018194B18B5
:102180000000FFE3FFFFE3FF3F80FC1FC0781FC09C
:10219000700FE0E007E0C007F1C003FF8003FF001D
:1021A00001FF0000FE0000FE00007F00007F8000B5
:1021B000FF8001DFC0038FE0038FE00707F00E030D
:1021C000F01E03F83F03FCFFEFFFFFEFFF18194B72
:1021D000180000FFF1FFFFF1FF3F807C1FC0381F98
:1021E000C0700FE0700FE0E007F0C003F1C003F92A
:1021F0008001FB8001FF0000FF00007E00007E00E8
:10220000007E00007E00007E00007E00007E000058
:102210007E00007E00007E0003FFC003FFC0131994
:102220004B1501007FFFE07FFFE07E0FE0780FE0BD
:10223000701FC0701F80603F80607F00407E000084
:10224000FE0001FC0001FC0003F80003F00007F0B1
:10225000000FE0200FE0601FC0601F80603F80E043
:102260007F00E07F01E0FE07E0FFFFE0FFFFE00806
:102270001D1D0D03FCFFFFF0F0F0F0F0F0F0F0F0AA
:10228000F0F0F0F0F0F0F0F0F0F0F0F0F0F0F0F04E
:10229000FFFF101932140200F000F80078007C00F3
:1022A0003C003E001E001F000F000F80078007C08B
:1022B00003C003E001E001F000F000F80078007CCA
:1022C000003C003E001E001E000F081D1D0D01FCFD
:1022D000FFFF0F0F0F0F0F0F0F0F0F0F0F0F0F0F2E
:1022E0000F0F0F0F0F0F0F0F0F0F0FFFFF100E1C11
:1022F00014020B03C007E007E00FF00FF00FF01E11
:10230000781E783C3C3C3C7C3E781EF81FF00F1059
:1023100003061000FBFFFFFFFFFFFF0706060B028F
:102320001160F0F87C1E061210301401000FF0004E
:102330003FFC00787E007C3E007C3E00383E000082
:102340003E0003FE001FBE007E3E007C3E00FC3EC1
:1023500000FC3E00FC7F407FFFC03F8F8013194B85
:10236000150000FF0000FF00001F00001F00001FFD
:1023700000001F00001F00001F00001F00001F3F83
:10238000001FFF801FCFC01F87C01F03E01F03E097
:102390001F03E01F03E01F03E01F03E01F03E01F14
:1023A00003C01F07C01F8F801DFF00187C000F1087
:1023B0002011010003F00FFC3E3E7C3E7C3EF81CE9
:1023C000F800F800F800F800FC02FC067E063F1C4E
:1023D0001FF807E014194B160100007F80007F8072
:1023E000001F80000F80000F80000F80000F800012
:1023F0000F80000F800FCF801FEF803E3F807C1F3B
:1024000080781F80F80F80F80F80F80F80F80F8019
:10241000F80F80F80F80F81F807C1F807C7F803F42
:10242000EFF00F8FF010102012010003E00FF83CC6
:102430003C781E781EF81FF81FFFFFFFFFF800F81A
:1024400000FC037C063F0E1FFC07F00F19320D0045
:102450000000F003FC079E0F3E0F3E1F1C1F001FD5
:10246000001F00FFF0FFF01F001F001F001F001FD4
:10247000001F001F001F001F001F001F001F00FF84
:10248000E0FFE014194B1401F90001E00003F0072C
:10249000FFF01F7CE03E3E007C1F007C1F007C1F85
:1024A000007C1F007C1F003E3E001F7E001FF800C6
:1024B0007C0000F80000FFFC00FFFF003FFF001F52
:1024C000FF807FFF80F00780F00780F80F007FFE1D
:1024D000000FF00014194B160100FE0000FE000072
:1024E0003E00003E00003E00003E00003E00003E78
:1024F00000003E00003E3E003EFF803FFF803F8FD9
:10250000C03F07C03F07C03E07C03E07C03E07C0F0
:102510003E07C03E07C03E07C03E07C03E07C0FFA3
:102520009FF0FF9FF00919320C02001C003E003E94
:10253000003E001C000000000000000000FE00FE45
:10254000003E003E003E003E003E003E003E003E9B
:10255000003E003E003E003E00FF80FF800C204019
:102560000CFDF900E001F001F001F000E0000000D6
:10257000000000000007F007F001F001F001F00199
:10258000F001F001F001F001F001F001F001F001C3
:10259000F001F001F001F071F0F9E0F9E0FBC07F2B
:1025A000801E0014194B160100FE0000FE00003EC4
:1025B00000003E00003E00003E00003E00003E00E5
:1025C000003E00003E3FE03E3FE03E0F003E0E007A
:1025D0003E3C003E70003EF8003FFC003FFE003FE6
:1025E0007E003E3F003E1F803E1FC03E0FE0FFBF0B
:1025F000F0FFBFF00A19320C0100FE00FE003E00A1
:102600003E003E003E003E003E003E003E003E00DA
:102610003E003E003E003E003E003E003E003E00CA
:102620003E003E003E003E00FFC0FFC01D10401FA8
:102630000100FE7E1F00FEFF3FC03FFFFFC03F9F27
:10264000E7E03F0FC3E03E0F83E03E0F83E03E0F25
:1026500083E03E0F83E03E0F83E03E0F83E03E0FBA
:1026600083E03E0F83E03E0F83E0FFBFEFF8FFBF44
:10267000EFF8141030160100FE3E00FEFF803FFF11
:10268000803F8FC03F07C03E07C03E07C03E07C027
:102690003E07C03E07C03E07C03E07C03E07C03EE3
:1026A00007C0FF9FF0FF9FF011103013010003E0FF
:1026B000000FF8003E3E007C1F007C1F00F80F80DA
:1026C000F80F80F80F80F80F80F80F80F80F807CEB
:1026D0001F007C1F003E3E000FF80003E0001317B0
:1026E000451501F9FE7E00FEFF803F8FC03F07C009
:1026F0003F07E03E03E03E03E03E03E03E03E03EF2
:1027000003E03E03E03F07C03F07C03F8F803FFF2D
:10271000003E7E003E00003E00003E00003E000005
:102720003E0000FF8000FF80001417451401F907E8
:10273000E1801FF9803E1F807C1F807C0F80F80F96
:1027400080F80F80F80F80F80F80F80F80F80F8066
:102750007C1F807C1F803E3F801FEF8007CF800062
:102760000F80000F80000F80000F80000F80007F1F
:10277000F0007FF00F1020100100FC7CFCFE3DFEFD
:102780003DBE3F3E3E1C3E003E003E003E003E0041
:102790003E003E003E00FFC0FFC00E1020100100B2
:1027A0000FD83CF87038F018FE08FFC0FFF07FF833
:1027B0003FF80FFCC0FCC03CE038F878FFF0CFC019
:1027C0000C172E0E0100060006000E000E000E0073
:1027D0001E003E00FFE0FFE03E003E003E003E00E7
:1027E0003E003E003E003E303E303E303E603FE028
:1027F0001FC00F80141030160100FE1FC0FE1FC046
:102800003E07C03E07C03E07C03E07C03E07C03E71
:1028100007C03E07C03E07C03E0FC03E0FC03F1F6F
:10282000C01FFFC01FF7F007C7F0131030130000E0
:10283000FF8FE0FF8FE03F03C03F03801F03001FB7
:1028400087000F86000FC60007CC0007EC0003F8D6
:102850000003F80001F80001F00000F00000E000C3
:102860001B10401D0100FFBFEFE0FFBFEFE07E1F28
:1028700083C03E0F83803F0F83001F0FC3001F8F55
:10288000C6000F9FE6000F9BE6000FFBEC0007F170
:10289000FC0007F1F80003E1F80003E0F00001C0DC
:1028A000F00001C06000131030130000FFDFE0FFF4
:1028B000DFE03F07001F8E001FDC000FF80007F06D
:1028C0000003F00001F80003FC0007FE000E7E008C
:1028D0001C3F003C3F80FF7FE0FF7FE01317451364
:1028E00000F9FF8FE0FF8FE03F03803F03801F036D
:1028F000001F87000F86000FC60007CC0007EC0002
:1029000003F80003F80001F80001F00000F00000F7
:10291000E00000600070C000F8C000F98000FF0017
:10292000007F00003C00000E10201001007FFC7FA3
:10293000FC70FC61F861F843F007E007E00FC01F8E
:10294000801F0C3F0C7E1C7C1CFFFCFFFC081E1E25
:102950000D03FC030E1C3C3C3C3C3C3C3C3C3C3CE6
:1029600038F0F83C3C3C3C3C3C3C3C3C3C3C1C0E89
:1029700003041919140800F0F0F0F0F0F0F0F0F092
:10298000F0F0F0F0F0F0F0F0F0F0F0F0F0F0F0F047
:10299000081C1C0D01FDE0783C3C3C3C3C3C3C3CB4
:1029A0003C3C1C0F1F3C3C3C3C3C3C3C3C3C3C3CD1
:1029B00078E010060C1402060E043F8E7FFFFFFE27
:1029C00071FC2070FFFFE0FFD1AFFF32FFD0FFFEB0
:1029D000FFE0FFD1AEFFD0FFFEFFE0FFD11000FF10
:1029E000FEFFD0FFE0FFC1FFD1AED580A83FD300EE
:1029F000408D142000A1C8DA1281CFD9F1DB402E1E
:102A0000A4A6AFFFD0FFFE0000000023002600298F
:102A10000001020408102040800102040810200177
:102A2000020408102000000000250028002B0004EC
:102A30000404040404040402020202020203030365
:102A400003030300502A402A11241FBECFEFD8E011
:102A5000DEBFCDBF12E0A0E0B1E0E2EBFEE502C0D8
:102A600005900D92AE32B107D9F724E0AEE2B2E0A4
:102A700001C01D92A133B207E1F715E1C3E2D5E130
:102A800004C02197FE010E943A2FC232D107C9F734
:102A90000E94DA220C944C2F0C940000833081F0B9
:102AA00028F4813099F08230A1F008958730A9F0A0
:102AB0008830B9F08430D1F4809180008F7D03C0DC
:102AC000809180008F7780938000089584B58F7700
:102AD00002C084B58F7D84BD08958091B0008F774A
:102AE00003C08091B0008F7D8093B0000895089559
:102AF000DC011696ED91FC91179712968C91481B6C
:102B0000477081E090E001C0880F4A95EAF7E60F30
:102B1000F11D3081222311F0832B02C08095832385
:102B200080830895FB014181DC0112962C9112975C
:102B3000421768F013962C911397241740F0608188
:102B400015962C91621718F424810C947815089529
:102B5000FC0180819281980F92832181921760F409
:102B600094819F5F94839381890F821710F08FEF78
:102B7000820F838381E0089580E00895FC01128232
:102B800080818150838314820895FC01808D8F5F42
:102B90000895FC01818D089580E008950B96FC0155
:102BA000849108950A96FC0184910895FC01849112
:102BB00008950E94D615882321F0823011F083E019
:102BC000089586E00895FC01E60FF11D849190E0E0
:102BD000982F88273196E4918E0F911D089568E013
:102BE0000C94E31566E00C94E3152EE93FE00097A2
:102BF00029F0F9013197F1F70197F9CF0895509134
:102C0000A3026091A2024091A1023091A002A09182
:102C10009E02B0919F02E0919C02F0919D029FB7AD
:102C200090939B02F89498E02C9187FF02C0252B8B
:102C300001C026232C932081242B2083880F208100
:102C400023232083915081F780919B028FBF0895A9
:102C5000282F30E0F901E15DF54DE491F0E0EE0F51
:102C6000FF1FEB5DF54D8591949190939F028093AA
:102C70009E0270E0FB01E15DF54D9491E92FF0E0DB
:102C8000EE0FFF1FEB5DF54D8591949190939D02A2
:102C900080939C02F901EF5EF54D24912093A302ED
:102CA000FB01EF5EF54D64916093A1026095609326
:102CB000A00220952093A2020895DB011496ED91C5
:102CC000FC91159720E030E065E00994CF92DF9207
:102CD000EF92FF920F931F93CF93DF938C017B01B1
:102CE0006A0180E0F601C49181110BC0CF3F09F465
:102CF00057C04C2FB701C8010E945D1681114EC00C
:102D000054C0CF3F11F44FEFF5CFCE3F09F44FC081
:102D1000C03F08F043C0C03E58F04C2F4F70D70161
:102D20001496ED91FC91159720E030E062E00CC024
:102D3000C03D68F04C2F4F70D7011496ED91FC9177
:102D4000159720E030E063E0C801099527C0C03C3A
:102D5000F8F0D7011496ED91FC91159720E030E042
:102D600040E064E0C8010995C295C07FCE5FD0E025
:102D7000CE010E94F515D7011496ED91FC9115979F
:102D800020E030E041E064E0C8010995CE0104C0D4
:102D9000C7FD04C08C2F90E00E94F51580E001C0B3
:102DA00081E0BFEFCB1ADB0A9DCF80E001C081E05C
:102DB000DF91CF911F910F91FF90EF90DF90CF9017
:102DC00008958F929F92AF92BF92CF92DF92FF921F
:102DD0000F931F93CF93DF9300D0CDB7DEB76C0175
:102DE0008B01F42E490120E1421709F456C0241743
:102DF000A0F03AE043135BC0DB011496ED91FC9127
:102E0000159720E030E042E061E0099541EE59E29B
:102E1000B801C6010E9466164AC081E1481709F44C
:102E20003FC0A5E14A1343C0FB01A280B38049ED36
:102E300059E2C6010E946616D50114964C91406B6A
:102E4000B801C6010E945D16D8011496ED91FC915F
:102E5000159720E030E041E062E0C6010995F501F8
:102E600026813781D8011496ED91FC911597D501F3
:102E700015964C9166E0C6010995811102C080E06B
:102E8000D3C0D8011496ED91FC91159720E030E065
:102E900040E063E0C60109950AC040ED59E202C076
:102EA00045EC59E2B801C6010E946616BCC0F801A3
:102EB00002811381F2E3FF1609F479C0FF15B8F01F
:102EC00025E1F21609F480C037E1F31609F492C047
:102ED00084E1F812A8C0D8011696ED91FC911797DD
:102EE00015968C919F01280F311DC90165C0A6E47C
:102EF000FA1609F48FC0B7E4FB1609F48FC0EBE3B0
:102F0000FE1291C0D40111968C91119713969C9149
:102F1000913029F0933031F4482F885004C048E0B4
:102F2000480F01C0482F21E0F8013381381708F419
:102F300020E031E0D80112965C91451708F430E0AA
:102F400051E0481708F050E0822F852B382319F400
:102F5000252309F468C0F401F280913051F030F07B
:102F6000923049F0933051F42FEF09C020E031E066
:102F700007C021E004C020E03FEF02C020E030E0C5
:102F8000F7FE08C0B401C8012A8339830E94921554
:102F900039812A81D4018C91830F8C9311968C9165
:102FA0001197820F11968C93FF0C51F73CC0B4011E
:102FB000C8010E94921537C01192E817F907E1F78E
:102FC000C8010E94BE152FC0C8010E94A815882301
:102FD00009F455CFD8011696ED91FC9117971596E7
:102FE0008C919F01280F311DC9011192E817F90733
:102FF000E1F719C0D4011C92F801828111968C93DB
:1030000011978581815012968C9312978381139624
:103010008C9309C0D80115968C9103C0D8011196E4
:103020008C91F401808381E00F900F90DF91CF911C
:103030001F910F91FF90DF90CF90BF90AF909F9026
:103040008F900895089580E090E008958DEA92E0D1
:103050000E949A2021E0892B09F420E0822F089514
:103060001F920F920FB60F9211242F933F934F93FD
:103070005F936F937F938F939F93AF93BF93EF93E0
:10308000FF938DEA92E00E940921FF91EF91BF9199
:10309000AF919F918F917F916F915F914F913F91F0
:1030A0002F910F900FBE0F901F9018951F920F92A7
:1030B0000FB60F9211242F938F939F93EF93FF934B
:1030C000E091BD02F091BE028081E091C302F091D7
:1030D000C40282FD12C090818091C6028F5F8F73FF
:1030E0002091C702821751F0E091C602F0E0E3554B
:1030F000FD4F958F8093C60201C08081FF91EF91B3
:103100009F918F912F910F900FBE0F901F90189548
:10311000CF93DF93282F30E0F901E057FF4F8491E0
:10312000F901EF5EF54DD491F901E15DF54DC491E2
:10313000CC2391F081110E944E15EC2FF0E0EE0FA0
:10314000FF1FE95FF54DA591B491EC91ED2381E06E
:1031500090E021F480E002C080E090E0DF91CF9128
:1031600008951F93CF93DF93282F30E0F901E057A4
:10317000FF4F8491F901EF5EF54DD491F901E15DC6
:10318000F54DC491CC23C9F0162F81110E944E1524
:10319000EC2FF0E0EE0FFF1FEB5DF54DA591B49124
:1031A0008FB7F894111105C09C91ED2FE095E9239C
:1031B00002C0EC91ED2BEC938FBFDF91CF911F916B
:1031C0000895860F911DFC0183A18F3F19F0642F94
:1031D0000C94B1180895CF93DF9390E0FC01EF5E5B
:1031E000F54D2491FC01E15DF54D8491882361F159
:1031F00090E0880F991FFC01EA57FF4FC591D491C9
:10320000FC01EB5DF54DA591B491611109C09FB72B
:10321000F8948881209582238883EC912E230BC01B
:10322000623061F49FB7F8943881822F80958323B0
:103230008883EC912E2B2C939FBF06C08FB7F894F8
:10324000E8812E2B28838FBFDF91CF910895CF92F5
:10325000DF92EF92FF920F931F93CF93DF931F9212
:10326000CDB7DEB76C018901862F90E0FC01319764
:10327000E730F10508F05EC0E45CFF4F0C943A2F94
:1032800086010D5D1F4F760180E3E80EF11CF80109
:1032900080818F3F41F061E00E94EB1861E0F8010E
:1032A00080810E94B1180F5F1F4F0E151F0579F71F
:1032B00040E064E0C6010E94E11840E065E012C011
:1032C000F60183A18F3FB1F160E031C0411103C02D
:1032D00041E062E02CC040E064E0C6010E94E118D9
:1032E00040E062E0C6010E94E118F60167A180A5F6
:1032F0000E9428161FC0842F0E94FF151BC0442364
:10330000C9F0F80181918F0149830E94FF1549811D
:103310004150F5CF442371F0F801849149830E9414
:10332000FF150F5F1F4F49814150F4CF61E0C60187
:103330000E94E11881E00F90DF91CF911F910F91D2
:10334000FF90EF90DF90CF9008958E3008F08E5070
:103350008770806480937C0080917A008064809381
:103360007A0080917A0086FDFCCF809178002091D0
:10337000790090E0922B08953FB7F8948091A902CC
:103380009091AA02A091AB02B091AC0226B5A89B85
:1033900005C02F3F19F00196A11DB11D3FBFBA2FE7
:1033A000A92F982F8827820F911DA11DB11DBC0147
:1033B000CD0142E0660F771F881F991F4A95D1F70C
:1033C00008958F929F92AF92BF92CF92DF92EF9229
:1033D000FF926B017C010E94BC194B015C01C1147E
:1033E000D104E104F104F1F00E94BC19DC01CB012D
:1033F00088199909AA09BB09883E9340A105B1051E
:1034000070F321E0C21AD108E108F10888EE880EB5
:1034100083E0981EA11CB11CC114D104E104F10485
:1034200019F7DDCFFF90EF90DF90CF90BF90AF9076
:103430009F908F9008951F920F920FB60F921124B4
:103440002F933F938F939F93AF93BF938091A50248
:103450009091A602A091A702B091A8023091A40277
:1034600023E0230F2D3720F40196A11DB11D05C0C7
:1034700026E8230F0296A11DB11D2093A40280937C
:10348000A5029093A602A093A702B093A8028091F0
:10349000A9029091AA02A091AB02B091AC02019650
:1034A000A11DB11D8093A9029093AA02A093AB0223
:1034B000B093AC02BF91AF919F918F913F912F91AB
:1034C0000F900FBE0F901F901895DB01ED91FC91AE
:1034D0000994EF92FF920F931F93CF93DF931F9264
:1034E000CDB7DEB78C01DC011296ED90FC901397FE
:1034F000D196ED91FC91D29782E0099520E030E0E1
:103500004AE0B701C8010E94651AF82ED801D19689
:10351000ED91FC91D29783E00995D801D196ED9178
:10352000FC91D29780E00995FF20A1F1F80162811A
:1035300073819E012F5F3F4F46E4C8010E94651AC8
:103540008981D8018C9312966D917C9113979E017D
:103550002F5F3F4F47E4C8010E94651A8981F80137
:1035600081836281738120E030E048E4C8010E94D9
:10357000651AD8011B968C931B9798012D5C3F4FC1
:1035800012966D917C91139747E1C8010E94651ACC
:1035900081E001C080E00F90DF91CF911F910F91EA
:1035A000FF90EF9008950F93FC010150040F84A940
:1035B00096A9941718F0081728F402C0081750F0BD
:1035C000041740F42150260F83A995A9961720F4DB
:1035D000281720F480E007C0281720F481E0261780
:1035E00010F0F8CF81E00F9108952F923F925F92F3
:1035F0006F927F928F929F92AF92BF92CF92DF9203
:10360000EF92FF920F931F93CF93DF931F92CDB74B
:10361000DEB71C01C62E142FD22EDC011496ED90BD
:10362000FC901597C7010E94D615082FF1018481DF
:1036300095810E94D915982E013019F48FE0A82E9B
:1036400002C0AA24AA94D10114968D919C91159739
:103650000E94D215082FF101848195810E94CE1518
:10366000B82ED10114968D919C9115970E94EF155B
:10367000B0E6BD1530F4009721F0E80EF91E01E622
:1036800011C0F101848195810E94F215F0E4FD15CD
:1036900030F4009721F0E80EF91E01E403C021E1A7
:1036A000E20EF11CBD1480F4D10150961C9250978B
:1036B00053961C92539754961C92549751961C9271
:1036C000519752961C92C7C0B01670F3892D90E0A6
:1036D000F70124912F3F21F4FFEFEF1AFF0A5AC0A0
:1036E0000D114FC0D10114968D919C9115970E9498
:1036F000D61597012F5F3F4FF701882311F08230D5
:10370000E1F48491D10153968C935397F90124915C
:1037100054962C935497F7013396E4915096EC937A
:103720005097F7013496E4915196EC935197F70135
:103730003596E4915296EC9320C08491982F9F7017
:103740009250D10152969C93529782958F705196C8
:103750008C935197F9012491822F8F7054968C93FA
:10376000549722952F7053962C935397F7013296C6
:10377000E491E295EF705096EC93E114F10479F442
:103780006AC0F7013296E491EA219C012E0F311DA7
:10379000E20EF31E0B1509F487CF0F5F99CFF101ED
:1037A000848195810E94D915B82ED10153969C90A1
:1037B00053975496DC90549751968C915197C80E1C
:1037C00052969C919D0D512E591A0D2D292D452D46
:1037D0006C2DC1010E94D31A8823D1F1C7018B0D32
:1037E000911D5C0187E0890DF82EF694F694F6940D
:1037F000D50C41019CE1890E911C6F2C712C5D143C
:1038000039F15C2D8501802F8A198F15E8F4F801B4
:103810008491D10112966D917C9113975C965C9383
:103820005C975D965C925D975F961C925F975E9643
:103830008C9394014BE3C10159830E94651A0F5F79
:103840001F4F5981585FDFCFA60CB71C5394D7CFB9
:10385000F101808901C080E00F90DF91CF911F912D
:103860000F91FF90EF90DF90CF90BF90AF909F901F
:103870008F907F906F905F903F902F900895CF92A0
:10388000DF92EF92FF920F931F93CF93DF931F92DC
:10389000CDB7DEB76C01DC01DC961C91DC97DB96C2
:1038A0000C917C01B4E0EB0EF11CDC015996ED911A
:1038B000FC915A97C70169830995482F410F2981C7
:1038C000602FC7010E94F51AF60123AD082E000CE7
:1038D000990B820F911D83AF81E090E00F90DF91F3
:1038E000CF911F910F91FF90EF90DF90CF900895AF
:1038F0008EBD00000DB407FEFDCF8EB508958F92EA
:103900009F92AF92BF92CF92DF92EF92FF920F936E
:103910001F93CF93DF936C014A015B017901CAE4E5
:10392000D3E005EC15E11A8F098F84EA90E00E943C
:103930001C201BAE86E08CAFB601CE010E949A21FE
:1039400084E992E10E941C201A8F098F1BAE89E145
:103950008CAF21E0B501A401CE010E94F82184EAD8
:1039600090E00E941C201A8F098FA7016CE180E56E
:10397000DF91CF911F910F91FF90EF90DF90CF904B
:10398000BF90AF909F908F900C94D91CCF93DF93F2
:10399000BC018DEA92E00E949A21EC0165EF71E092
:1039A0008DEA92E00E949A218C0F9D1FDF91CF91AA
:1039B0000895CF92DF92FF920F931F93CF93DF93DF
:1039C00000D0CDB7DEB7F82E062FE0916303F0915B
:1039D00064038EE493E049835A830995080F498173
:1039E000C42E5A81D52E10E0F60121916F012223B9
:1039F00049F0402F6F2D8EE493E00E94F51AF80EE7
:103A0000180FF2CF812F0F900F90DF91CF911F9160
:103A10000F91FF90DF90CF9008959CB59F7D9CBD46
:103A20009CB5937F9CBD9CB59C7F9CBD9DB59160D2
:103A30009DBD682F809189030E94B1188FE090E0AE
:103A40000197F1F7089581E00C940D1D80E00C942E
:103A50000D1D1F93CF93DF9300D0CDB7DEB76A83E0
:103A600089830E94261D89818F7180620E94781C43
:103A7000182F6A81862F0E94781C0E94231D812F97
:103A80000F900F90DF91CF911F910895CF93DF9307
:103A90001F92CDB7DEB789830E94261D89818F7161
:103AA0000E94781C8FEF0E94781C89830E94231D3E
:103AB00089810F90DF91CF9108950F931F93CF933A
:103AC000DF93CDB7DEB729970FB6F894DEBF0FBEF0
:103AD000CDBF8091A0039091A103892B09F4A1C0CF
:103AE0000E94BC190091A6031091A7032091A8037E
:103AF0003091A903DC01CB01801B910BA20BB30B0E
:103B0000C297A105B10560F3F89480919C03909150
:103B10009D039A838983E091A003F091A103DF01C3
:103B200011968081898790919803E091AA03F09182
:103B3000AB038091AC03992309F42EC09081982B9C
:103B400098879081809589238F838F818C8388E0EB
:103B50008B8358856F8149853B812C8189819A812E
:103B6000508347FD252F3A952083262F39F0441F97
:103B700000C000006083000000C0F2CF38E04D912B
:103B800060830000019761F7F093AB03E093AA0311
:103B900049873B832C8338C09081982B98879081EC
:103BA000809589238F838F818E8388E08D835885CC
:103BB0006F8149853D812E8189819A81508347FD9E
:103BC000252F00C000C0208300C000C000C000C07E
:103BD00000C060830000262F3A9541F0441F00008A
:103BE00000C000C000C000C000C0E8CF38E04D9168
:103BF00000C0608300C0019709F7F093AB03E09326
:103C0000AA0349873D832E839A83898378940E94EF
:103C1000BC196093A6037093A7038093A8039093A5
:103C2000A90329960FB6F894DEBF0FBECDBFDF9172
:103C3000CF911F910F9108958F929F92AF92BF9253
:103C4000CF92DF92EF92FF9220919A0330919B03E3
:103C50008217930708F052C04B01AA24BB24E82D19
:103C6000C52ED62EE72EFF24FC2D342F20919F0346
:103C7000222361F0829E40011124E92DC29E600141
:103C80001124FD2D429FD00111243B2FF090A5035C
:103C9000E090A203A091A003B091A103FE1008C080
:103CA000AC01440F551F840F951F8A0F9B1F14C032
:103CB000880F991F880F991F8A0F9B1F472F552721
:103CC00066277727DC01AF0DB11D222321F0429F2B
:103CD000A0011124452F4C932091A203DC01A20FD7
:103CE000B11DEC932091A303DC01A20FB11DFC9345
:103CF0002091A403FC01E20FF11D3083FF90EF90AF
:103D0000DF90CF90BF90AF909F908F900895CF920B
:103D1000DF92EF92FF920F931F93CF93DF9377FF82
:103D20001DC06A017B01EC016DE20E9493218C01B0
:103D300044275527BA014C195D096E097F092AE00D
:103D4000CE010E94AF21800F911FDF91CF911F9173
:103D50000F91FF90EF90DF90CF9008952AE0DF91D0
:103D6000CF911F910F91FF90EF90DF90CF900C9427
:103D7000AF212F923F924F925F926F927F928F92DC
:103D80009F92AF92BF92CF92DF92EF92FF920F93EA
:103D90001F93CF93DF9300D000D0CDB7DEB76B0178
:103DA0007C0114161506DCF4BA01550F880B990B2B
:103DB0000E94FF2D9B01AC01C701B6010E94552D49
:103DC000B62FA72FF82FE92F8D011F0126E636E623
:103DD00046E850E40E94AF2E87FF80C004C010E088
:103DE00000E0312C212C2AE1822E21E0922E612C40
:103DF000712C53019FEFA91AB90AD40114968D9121
:103E00009D910D90BC91A02D89839A83AB83BC8337
:103E10009C01AD01612F702F832D922D0E94502D9A
:103E200018162CF484E0880E911C3501E2CFF401C1
:103E3000C080D180E280F380A7019601612F702FAE
:103E4000832D922D0E94AF2E181664F7F301EE0F0A
:103E5000FF1FEE0FFF1FEA5BFE4F80809180A28064
:103E6000B380F301EE0FFF1FEE0FFF1FE65BFE4F67
:103E7000A501940160817181828193810E94E32C6C
:103E80002B013C01A701960169817A818B819C817C
:103E90000E94E32C9B01AC01C301B2010E94552D8D
:103EA0002B013C01A7019601612F702F832D922DCC
:103EB0000E94E32C9B01AC01C301B2010E94B42E0D
:103EC000A50194010E94E42C20E030E048EC52E48B
:103ED0000E94B42E0E94C72DCB0102C084E690E060
:103EE0000F900F900F900F90DF91CF911F910F9136
:103EF000FF90EF90DF90CF90BF90AF909F908F900A
:103F00007F906F905F904F903F902F9008958F9289
:103F10009F92AF92BF92EF92FF920F931F93CF9316
:103F2000DF938C014A015B017901A901C501B4014C
:103F30000E94B91EEC0168EF71E08DEA92E00E94E8
:103F40009A2122E0B501A4018DEA92E00E94F821B5
:103F500065EF71E08DEA92E00E949A2161E072E0E3
:103F60008DEA92E00E949A21A701FF0C660B770B65
:103F70008DEA92E00E94871E65EF71E08DEA92E083
:103F80000E949A216FE072E08DEA92E00E949A21ED
:103F9000AE010D2E000C660B770B8DEA92E00E94AD
:103FA000871E65EF71E08DEA92E00E949A21C1358B
:103FB000D10564F040E05FEF60E070E0C8010E946E
:103FC0001C1E0E945D1D8AE192E02AC0CE01CD97A1
:103FD000449760F442E35DEC6AE970E0C8010E9436
:103FE0001C1E0E945D1D8CE192E01AC06F976E97B7
:103FF00060F440E055EA6FEF70E0C8010E941C1EBB
:104000000E945D1D8EE192E00BC040E050E06FEF3A
:1040100070E0C8010E941C1E0E945D1D80E292E0BB
:10402000DF91CF911F910F91FF90EF90BF90AF90D4
:104030009F908F900C94C61C209152033091530393
:104040002817390709F444C090935303809352030F
:10405000009709F437C020916503FC01211107C0C6
:104060003596E491E0936603FC013C960FC0213045
:1040700039F43F96E491E0936603FC01709606C024
:104080003D96E491E0936603FC013E968491809313
:10409000670380916603082E000C990B209167033B
:1040A000821B910927FD939520916803203441F0EC
:1040B000829FC001112426E0969587952A95E1F705
:1040C000809369038CEC95E1909364038093630380
:1040D0000895FC01538D448D252F30E0842F90E00E
:1040E000821B930B541710F0CF96089501970895F3
:1040F000FC01918D828D981761F0828DDF01A80FF0
:10410000B11D5D968C91928D9F5F9F73928F90E011
:1041100008958FEF9FEF0895FC01918D828D981780
:1041200031F0828DE80FF11D858D90E008958FEFBD
:104130009FEF0895FC01918D228D892F90E0805C86
:104140009F4F821B91098F739927089580E090E01B
:10415000892B29F00E94261881110C9400000895E3
:10416000CF92DF92EF92FF920F931F93CF93DF9343
:104170006C017A018B01C0E0D0E0CE15DF0589F03B
:10418000D8016D918D01D601ED91FC910190F081E6
:10419000E02DC6010995892B11F47E0102C02196FC
:1041A000ECCFC701DF91CF911F910F91FF90EF905E
:1041B000DF90CF9008950E94472F0F931F93CF93C6
:1041C000DF93D82F01E020E8482F60E08EE493E0F1
:1041D0000E94D31A8823C1F0C0E01FEF6091500302
:1041E00070915103C0936A03D0936B0310926D03D7
:1041F00010936C032AE633E04BE38EE493E00E94D5
:10420000651AC85FC03851F7DF91CF911F910F91A8
:104210000895FC01848DDF01A80FB11DA35ABF4F83
:104220002C91848D90E001968F739927848FA689B5
:10423000B7892C93A089B1898C9180648C93938DDC
:10424000848D981306C00288F389E02D80818F7DCC
:1042500080830895EF92FF920F931F93CF93DF9384
:10426000EC0181E0888F9B8D8C8D981305C0E889C7
:10427000F989808185FD24C0F62E0B8D10E00F5F3B
:104280001F4F0F731127E02E8C8DE8120CC00FB654
:1042900007FCFACFE889F989808185FFF5CFCE0147
:1042A0000E940921F1CF8B8DFE01E80FF11DE35A29
:1042B000FF4FF0820B8FEA89FB898081806207C003
:1042C000EE89FF896083E889F98980818064808331
:1042D00081E090E0DF91CF911F910F91FF90EF90DF
:1042E0000895CF93DF93EC01888D8823C9F0EA8984
:1042F000FB89808185FD05C0A889B9898C9186FDDF
:104300000FC00FB607FCF5CF808185FFF2CFA889DB
:10431000B9898C9185FFEDCFCE010E940921E7CFAD
:10432000DF91CF910895DC01ED91FC910190F08136
:10433000E02D09946115710579F0FB0101900020D1
:10434000E9F73197AF01461B570BDC01ED91FC916A
:104350000280F381E02D099480E090E008954F926F
:104360005F926F927F92EF92FF920F931F93CF9382
:10437000DF93CDB7DEB7A1970FB6F894DEBF0FBEBF
:10438000CDBF7C01FA01CB0119A2223008F42AE04A
:104390008E010F5D1F4F422E512C612C712CBF01DD
:1043A000A30192010E94B22CF901CA010150110926
:1043B0006A3014F4605D01C0695CD8016C93232BF2
:1043C000242B252B61F7B801C7010E949A21A196E1
:1043D0000FB6F894DEBF0FBECDBFDF91CF911F9116
:1043E0000F91FF90EF907F906F905F904F900895A6
:1043F0004F925F926F927F928F929F92AF92BF92F5
:10440000CF92DF92EF92FF92CF93DF93EC016A019C
:104410007B01B22E9A01AB01C701B6010E94212F88
:10442000882319F062E272E027C026013701E89480
:1044300077F82FEF3FEF4FE75FE7C301B2010E942C
:10444000212F81110DC02FEF3FEF4FE75FE7C30131
:10445000B2010E94502D18161CF466E272E00CC0E6
:104460002FEF3FEF4FE75FE4C701B6010E94AF2E89
:1044700018169CF46AE272E0CE01DF91CF91FF90B2
:10448000EF90DF90CF90BF90AF909F908F907F90F4
:104490006F905F904F900C949A212FEF3FEF4FE772
:1044A0005FECC701B6010E94502D87FDE3CF20E0ED
:1044B00030E0A901C701B6010E94502D87FF0AC054
:1044C0006DE2CE010E9493214C01F7FAF094F7F8C7
:1044D000F09402C0812C912CA12C60E070E080E06F
:1044E0009FE3AB1441F020E030E040E251E40E9451
:1044F000552DA394F6CF9B01AC01C701B6010E94D4
:10450000E42C2B013C010E94CE2D6B017C010E940A
:10451000FD2D9B01AC01C301B2010E94E32C2B01D4
:104520003C012AE0B701A601CE010E94AF217C0127
:10453000E80CF91CBB2031F06EE2CE010E94932101
:10454000E80EF91EDB2CDD2029F120E030E040E20E
:1045500051E4C301B2010E94B42E2B013C010E9420
:10456000CE2D4B01A12CB12C2AE0B501A401CE0126
:104570000E94AF21E80EF91EC501B4010E94FD2D75
:104580009B01AC01C301B2010E94E32C2B013C0151
:10459000DA94D9CFC701DF91CF91FF90EF90DF90F0
:1045A000CF90BF90AF909F908F907F906F905F90D3
:1045B0004F900895CF93DF93CDB7DEB729970FB60D
:1045C000F894DEBF0FBECDBF789484B5826084BD01
:1045D00084B5816084BD85B5826085BD85B5816007
:1045E00085BD80916E00816080936E001092810085
:1045F0008091810082608093810080918100816040
:104600008093810080918000816080938000809100
:10461000B10084608093B1008091B000816080938C
:10462000B00080917A00846080937A0080917A0053
:10463000826080937A0080917A00816080937A0012
:1046400080917A00806880937A001092C1008091F6
:104650009E0387FD08C061E00E94EB1860E0809136
:104660009E030E94B11881E08093990360919F039B
:10467000653121F12091A0033091A103615031F007
:1046800070E08FEF94E10E94262F02C060E070E09E
:10469000F90140919C0350919D03CF01821B930B24
:1046A0008417950740F44081469FC001479F900DB5
:1046B00011249193EECF85E180939F034FEF50E05B
:1046C00060E070E080E090E00E941C1E0E945D1D92
:1046D0006CE271E080E090E00E94E11940E05FEF61
:1046E00060E070E081E090E00E941C1E0E945D1D71
:1046F0006CE271E080E090E00E94E11940E050E05F
:104700006FEF70E082E090E00E941C1E0E945D1D31
:104710006CE271E080E090E00E94E11940E055EA2F
:104720006FEF70E083E090E00E941C1E0E945D1D10
:104730006CE271E080E090E00E94E11900E010E09E
:1047400040E050E0BA01C8010E941C1E0F5F1F4FDD
:1047500004301105A9F70E945D1D80918803909196
:104760008903891719F061E00E94EB188091890391
:1047700090918803981719F061E00E94EB181FB719
:10478000F89480912E02811127C0E9E3FAE2849126
:10479000EBE1FAE29491E82FF0E0EE0FFF1FEA5709
:1047A000FF4FA591B491EC91E92321F461E08AE0F7
:1047B0000E94B11861E08AE00E94EB188CB580611C
:1047C0008CBD8CB580648CBD61E08DE00E94EB18DF
:1047D00061E08BE00E94EB1880912E028F5F809346
:1047E0002E021FBF8091880390918903891719F0C9
:1047F00060E00E94B11881E00E940D1D65E070E04C
:1048000080E090E00E94E1196CE080E00E94291DA8
:104810006FE584E00E94291D86E00E94461D877D89
:10482000182F10628BE990E0A0E0B0E08093930332
:1048300090939403A0939503B0939603612F86E021
:104840000E94291D86E00E94461D811709F414C6A6
:1048500086E00E94461D45E550E060E070E0409330
:104860009303509394036093950370939603682F7A
:10487000677D86E00E94291D86E00E94461D0E94F9
:10488000261D80E50E94781C83E70E94781C0E9408
:10489000231D60E08DE10E94291D60E08CE10E94F3
:1048A000291D60E787E00E94291D6CE485E00E94D5
:1048B000291D0E94261D82EE0E94781C0E94231D45
:1048C0000E94261D81EE0E94781C0E94231D80E01C
:1048D0000E94461D81FD0EC080E00E94461D682F8B
:1048E000626080E00E94291D65E070E080E090E059
:1048F0000E94E11980E00E94461D682F6E7F80E0D3
:104900000E94291D8DE10E94461D682F66608DE181
:104910000E94291D8CE10E94461D682F63608CE176
:104920000E94291D11E010938C038DE10E94461D09
:10493000682F64608DE10E94291D8CE10E94461D54
:10494000682F6F638CE10E94291D10938C0381EE08
:10495000898380EF8A838B8388EE8C838D831E828C
:104960001F821886D09092030E94261D8AE20E9420
:10497000781C8E010F5F1F4F7801C02ED00EDE1401
:1049800031F0F70181917F010E94781CF8CF0E94DD
:10499000231DF09092030E94261D80E30E94781C44
:1049A000FC0CF01631F0F80181918F010E94781C07
:1049B000F8CF0E94231D60918B0381E10E94291D85
:1049C00062E082E00E94EB1862E083E00E94EB1854
:1049D00061E081E10E94EB1880E10E94A519BC0111
:1049E000990F880B990B0E94FF2D20E030E04DECD1
:1049F00052E40E94552D6B017C0101E010E0B801EA
:104A0000012E000C880B990B0E94FF2D4B015C01BD
:104A100023E333E343E550E40E94B42E9B01AC0151
:104A2000C701B6010E94AF2E181684F426E636E6BA
:104A300046E850E4C501B4010E94B42E9B01AC01CC
:104A4000C701B6010E94502D87FD08C00F5F1F4FA0
:104A50000B301105A1F690E080E002C0902F812F6D
:104A600090937D0280937E0203E010E061E081E19B
:104A70000E94EB1861E081E10E94B11866E970E0E4
:104A800080E090E00E94E11961E081E10E94EB1872
:104A900060E081E10E94B11868EC70E080E090E095
:104AA0000E94E1190150110909F7F5EC2F2EF5E1EB
:104AB0003F2EA0907B02B0907C02C0905D02D0900F
:104AC0005E02E0905F02F0906002A114B104A1F5D3
:104AD00001E010E0B801012E000C880B990B0E9438
:104AE000FF2D2B013C0123E333E343E550E40E9417
:104AF000B42E9B01AC01C701B6010E94AF2E18165F
:104B000084F426E636E646E850E4C301B2010E948A
:104B1000B42E9B01AC01C701B6010E94502D87FD48
:104B200006C00F5F1F4F0B301105A1F601C05801E1
:104B3000B0927C02A0927B020091040110910501C9
:104B4000B801615071094801012E000CAA08BB0888
:104B5000072E000C880B990B043611050CF05DC074
:104B60000E94FF2D2B013C01C501B4010E94FF2DC5
:104B70004B015C0120919302309194024091950287
:104B800050919602C301B2010E94B42E20914502B9
:104B90003091460240914702509148020E94E42C15
:104BA000A50194010E94552D609393027093940285
:104BB000809395029093960220918F0230919002FB
:104BC0004091910250919202C301B2010E94B42E11
:104BD0002B013C016091590270915A0280915B0255
:104BE00090915C020E94FF2D9B01AC01C301B201B8
:104BF0000E94E42CA50194010E94552D60938F0220
:104C00007093900280939102909392020F5F1F4FD6
:104C100010930501009304015CC00E94FF2D2B013D
:104C20003C01C501B4010E94FF2D4B015C012091A4
:104C30009302309194024091950250919602C301E3
:104C4000B2010E94B42E209145023091460240915B
:104C50004702509148020E94E42CA50194010E9451
:104C6000552D6093930270939402809395029093D4
:104C7000960220918F0230919002409191025091C2
:104C80009202C301B2010E94B42E2B013C0160913B
:104C9000590270915A0280915B0290915C020E94CD
:104CA000FF2D9B01AC01C301B2010E94E42CA501C0
:104CB00094010E94552D60938F027093900280930F
:104CC00091029093920282E090E09093050180938C
:104CD000040140917B0250917C02C701B6010E9401
:104CE000B91E9093800280937F0200917D02109103
:104CF0007E0280E10E94A519BC01990F880B990BD7
:104D00000E94FF2D20E030E04DEC52E40E94552D32
:104D1000A8010E94B91E909382028093810221E42F
:104D200037E147E35AE360918F02709190028091DE
:104D30009102909192020E94B42E6B017C016093CB
:104D4000830270938402809385029093860260911F
:104D500071027091720280917302909174020E94AC
:104D6000FF2D28E933ED46ED55E30E94B42E609304
:104D70008B0270938C0280938D0290938E0220910F
:104D80008702309188024091890250918A02C701BE
:104D9000B6010E94AF2E181644F4C0928702D0923A
:104DA0008802E0928902F0928A02C0909302D09029
:104DB0009402E0909502F090960220919702309133
:104DC00098024091990250919A02C701B6010E943F
:104DD000AF2E181644F4C0929702D0929802E09237
:104DE0009902F0929A0280E10E94A519BC01990FE4
:104DF000880B990B0E94FF2D20E030E04DEC52E42F
:104E00000E94552DAB01BC01980180E090E00E940A
:104E1000871F20917B0230917C0240915D0250916E
:104E20005E0260915F027091600282E090E00E94F9
:104E3000871FEFE7F0E0F0933802E09337028EE04F
:104E40000E94A5198C0190930301809302018FE0C9
:104E50000E94A5192FEF30E0DC010E94402F2FEFB8
:104E600033E040E050E00E94932C30933A022093CC
:104E7000390283E00E94881821E0892B09F020E0A4
:104E800020933C0282E00E94881821E0892B09F0DF
:104E900020E020933B0280918B03E82E873010F0B6
:104EA000E6E0EE2E90918C03911103C0F82EFE18CF
:104EB00001C0F12C0E94261D80EA0E94781C77E335
:104EC000C72E72E0D72EEA94FFEFEF1631F0F6010D
:104ED00081916F010E94781CF6CFFF2029F080E0BD
:104EE0000E94781CFA94F9CF0E94231D80918803B8
:104EF00090918903891719F061E00E94B1180E940E
:104F0000261D8FEF0E94781C89870E94231D8985AA
:104F10008073A9F38091880390918903891719F010
:104F200060E00E94B11860E787E00E94291D84FFBD
:104F300009C00E94261D81EE0E94781C0E94231D3C
:104F4000E12C02C0EE24E394E092360287E10E9455
:104F5000461D80FD35C080918B038E3310F4D82E12
:104F600002C06EE3D62E90918C03911103C0F82EEF
:104F7000FD1801C0F12C0E94261D81E60E94781CBC
:104F80005DE3A52E52E0B52EDA94FFEFDF1639F07F
:104F90008FEF0E94781CF50181935F01F5CFFF2010
:104FA00029F08FEF0E94781CFA94F9CF0E94231DFC
:104FB00060E787E00E94291D81E080933502C6CF1B
:104FC000EE2039F01092360240E05FEF60E070E0D2
:104FD00017C08091310290913202A0913302B091BA
:104FE00034020196A11DB11D8093310290933202CB
:104FF000A0933302B093340240E050E06FEF70E0D2
:1050000081E090E00E941C1E0E945D1D0F3F110573
:1050100009F0BCF480912F0290913002029771F157
:10502000E2E0F0E0F0933002E0932F028091000183
:1050300090910101019689309105D9F481E090E0C9
:1050400018C0013093E01907CCF080912F029091A5
:105050003002019799F0E1E0F0E0F0933002E09344
:105060002F028091000190910101019711F488E0D5
:1050700090E0909301018093000109C0015011401C
:105080000F3F114020F41092300210922F028091B5
:105090008703811107C081E0809387038EE493E04A
:1050A0000E94691A0091500310915103E0917F030F
:1050B000F091800382E00995E0917F03F0918003F5
:1050C00081E0099520E030E044E1B8018EE493E00E
:1050D0000E94651A21E833E047E1B8018EE493E0CD
:1050E0000E94651AE0917F03F091800380E00995AA
:1050F0008AE5C82E9BE0D92E2EE1B22E3EE4A32EE7
:1051000010E447E6942EE0910001F09101013197FF
:10511000E830F10508F079C1EC5CFF4F0C943A2FB0
:1051200030926403209263038BE199E00E941C207B
:105130001092850310928603409181025091820261
:10514000052E000C660B770B8AE493E00E94871E05
:105150004CE951E060E089E10E94D91C4EE951E040
:1051600060E082E30E94D91CC092850310928603FE
:1051700040913102509132026091330270913402B9
:105180008AE493E00E94871E42EA51E060E08EE6E6
:105190000E94D91C89E00E94DD2084EA90E00E94F0
:1051A0001C20309264032092630310928503D092F6
:1051B0008603409183025091840260918502709130
:1051C000860221E08AE493E00E94F8218BE199E0D5
:1051D0000E941C20309264032092630346EA51E04F
:1051E0006BE080E30E94D91C84EA90E00E941C20BE
:1051F000309264032092630310928503B092860379
:1052000040918B0250918C0260918D0270918E02C0
:1052100021E08AE493E00E94F8218BE199E00E946A
:105220001C2030926403209263034BEA51E06EE14C
:1052300080E30E94D91C84EA90E00E941C203092F6
:10524000640320926303A0928503D0928603409169
:10525000930250919402609195027091960221E020
:105260008AE493E00E94F8218BE199E00E941C20DF
:1052700030926403209263034EEA51E06BE088E7CA
:105280000E94D91C85E30E94DD20E9ECF5E1F09352
:105290006403E09363038BE199E00E941C20109269
:1052A00085031093860320E030E04AE754E46091E0
:1052B00061027091620280916302909164020E9487
:1052C000B42EAB01BC0120E08AE493E00E94F821F7
:1052D00041EF51E060E48CE10E94D91C82E38093AD
:1052E00085031093860340915D0250915E026091A8
:1052F0005F027091600221E08AE493E00E94F8214D
:1053000040EB51E060E480E50E94D91C9092850357
:105310001093860340917F0250918002052E000C6D
:10532000660B770B8AE493E00E94871E4CE951E0FC
:1053300060E488E70E94D91C68C0409193025091B4
:10534000940260919502709196022EEA31E082EB10
:1053500091E059C04091830250918402609185028E
:10536000709186022AEB31E08EEB91E04CC06091A7
:105370007F0270918002072E000C880B990B0E940F
:10538000FF2DAB01BC012CE931E084EC91E03BC086
:1053900040918702509188026091890270918A023F
:1053A0002AEB31E08DEC91E02EC0409197025091B4
:1053B00098026091990270919A022EEA31E087ED8D
:1053C00091E021C040918B0250918C0260918D023E
:1053D00070918E022BEA31E083EE91E014C020E060
:1053E00030E04AE754E4609161027091620280917A
:1053F0006302909164020E94B42EAB01BC0121EFC4
:1054000031E08CEE91E00E947F1CE0915C03F09112
:105410005D03309719F08EE493E00995E090500316
:10542000F0905103E0917F03F091800382E00995B1
:10543000E0917F03F091800381E0099520E030E066
:1054400045E1B7018EE493E00E94651A082F882396
:1054500041F021E833E047E1B7018EE493E00E9498
:10546000651AE0917F03F091800380E009950111B6
:105470004ACE0E94A6201DCB81E080938A03E8C912
:105480008091A0039091A103009711F00E94FB2B43
:1054900080919E0387FD03C060E00C94EB18089593
:1054A0001092B0021092AF0288EE93E0A0E0B0E05C
:1054B0008093B1029093B202A093B302B093B4026E
:1054C00086E791E09093AE028093AD0285EC90E088
:1054D0009093BA028093B90284EC90E09093BC025E
:1054E0008093BB0280EC90E09093BE028093BD025B
:1054F00081EC90E09093C0028093BF0282EC90E038
:105500009093C2028093C10286EC90E09093C40213
:105510008093C3021092C6021092C7021092C80272
:105520001092C9021092990310929F031092A60341
:105530001092A7031092A8031092A90381E0809310
:10554000A5038093A2031092A30392E09093A40377
:10555000809398038CE090E090939D0380939C034C
:105560000E94662B9093A1038093A003009761F0A3
:105570002CE0FC0111922A95E9F784E090E09093E9
:105580009B0380939A0308C010929D0310929C0382
:1055900010929B0310929A0384E080939E03809163
:1055A0009903882341F061E084E00E94EB1860E0F9
:1055B00084E00E94B118E3E3FAE2E491F0E0EE0F38
:1055C000FF1FEB5DF54D859194919093AB03809314
:1055D000AA03E5E1FAE2E491E093AC0389E0809369
:1055E00088038AE08093890310928A0380E2809383
:1055F0008B0310928C0385E08093920310928D03AD
:1056000010924D0310924C0388E891E090934B0365
:1056100080934A03109285031092860310928703A9
:105620001092530310925203109255031092540398
:105630001092570381E08093560382E280935803CF
:1056400010925D0310925C03E1E7F3E09FEF8EE0C0
:105650008E0F91938E13FDCF81E080936E032CEC1F
:1056600035E13093640320936303809365031092C4
:1056700066031092670380E48093680310926903C5
:1056800087E795E19093800380937F038EE091E01C
:10569000909351038093500388E08093750387E0D3
:1056A0008093760384E18093730386E08093720392
:1056B00085E0809371038EE493E00E94691A84E987
:1056C00091E090934B0380934A030895CF93DF9327
:1056D0008230910510F482E090E0E0912F04F09187
:1056E000300420E030E0C0E0D0E0309711F140819C
:1056F000518148175907C0F04817590761F4828152
:105700009381209719F09B838A832BC09093300458
:1057100080932F0426C02115310519F04217530735
:1057200018F49A01BE01DF01EF010280F381E02D40
:10573000DCCF2115310509F1281B390B2430310547
:1057400090F412968D919C9113976115710521F03B
:10575000FB019383828304C09093300480932F04D1
:10576000FD01329644C0FD01E20FF31F8193919336
:10577000225031092D933C933AC020912D04309151
:105780002E04232B41F42091160130911701309300
:105790002E0420932D042091140130911501211520
:1057A000310541F42DB73EB74091180150911901D0
:1057B000241B350BE0912D04F0912E04E217F30722
:1057C000A0F42E1B3F0B2817390778F0AC014E5F71
:1057D0005F4F2417350748F04E0F5F1F50932E047C
:1057E00040932D048193919302C0E0E0F0E0CF015B
:1057F000DF91CF9108950F931F93CF93DF9300977D
:1058000009F48CC0FC0132971382128200912F049C
:10581000109130040115110581F420813181820F2E
:10582000931F20912D0430912E042817390779F504
:10583000F0932E04E0932D0471C0D80140E050E0B5
:10584000AE17BF0750F412962D913C911397AD01FE
:105850002115310509F1D901F3CF9D01DA01338317
:10586000228360817181860F971F8217930769F4E5
:10587000EC0128813981260F371F2E5F3F4F31837E
:1058800020838A819B8193838283452B29F4F09323
:105890003004E0932F0442C01396FC93EE931297CA
:1058A000ED01499159919E01240F351FE217F3072D
:1058B00071F480819181840F951F029611969C93BB
:1058C0008E938281938113969C938E931297E0E03E
:1058D000F0E0D80112968D919C911397009719F0E2
:1058E000F8018C01F6CF8D919C9198012E5F3F4F6E
:1058F000820F931F20912D0430912E042817390711
:1059000069F4309729F41092300410922F0402C0E9
:105910001382128210932E0400932D04DF91CF91F5
:105920001F910F910895052E97FB1EF400940E947D
:10593000AA2C57FD07D00E94B22C07FC03D04EF4CE
:105940000C94AA2C50954095309521953F4F4F4F80
:105950005F4F089590958095709561957F4F8F4F1B
:105960009F4F0895A1E21A2EAA1BBB1BFD010DC07B
:10597000AA1FBB1FEE1FFF1FA217B307E407F507FF
:1059800020F0A21BB30BE40BF50B661F771F881FDB
:10599000991F1A9469F760957095809590959B0171
:1059A000AC01BD01CF010895A29FB001B39FC0011A
:1059B000A39F700D811D1124911DB29F700D811D3B
:1059C0001124911D08955058BB27AA270E94FB2C33
:1059D0000C94752E0E94672E38F00E946E2E20F0D7
:1059E00039F49F3F19F426F40C94642E0EF4E095DC
:1059F000E7FB0C945E2EE92F0E94862E58F3BA170F
:105A0000620773078407950720F079F4A6F50C94D4
:105A1000A82E0EF4E0950B2EBA2FA02D0B01B90184
:105A200090010C01CA01A0011124FF27591B99F014
:105A3000593F50F4503E68F11A16F040A22F232F20
:105A4000342F4427585FF3CF469537952795A79570
:105A5000F0405395C9F77EF41F16BA0B620B730B17
:105A6000840BBAF09150A1F0FF0FBB1F661F771F88
:105A7000881FC2F70EC0BA0F621F731F841F48F43D
:105A8000879577956795B795F7959E3F08F0B0CFC6
:105A90009395880F08F09927EE0F979587950895AD
:105AA0000E943A2E08F481E008950E94692D0C941A
:105AB000752E0E946E2E58F00E94672E40F029F439
:105AC0005F3F29F00C945E2E51110C94A92E0C947A
:105AD000642E0E94862E68F39923B1F3552391F327
